:020000040000FA
:0400000043EF11F0C9
:1022320064000132F90ECB6ECA80CA92CA840C0EB7
:10224200BD6E12000F0EC16E1E0E936EF19E815076
:10225200E009816E1200000E816E000E936E94945E
:1022620023EC11F01BEC11F012002CEC11F0000E1B
:1022720057EC11F0556E555092EC11F038EF11F009
:1022820000EF00F0320EF66E220EF76E000EF86EC0
:1022920000EE56F010EE04F00900F5CFEEFFE55027
:1022A200E150FAE15A6A000136EF11F0016E0104C1
:1022B200D8A45EEF11F060EF11F084EF11F0C0ECE2
:1022C20012F05A6E5A28D8B469EF11F06BEF11F080
:1022D20078EF11F05850D8B471EF11F073EF11F09C
:1022E20078EF11F0000E586E5A5091EF11F05A2803
:1022F200D8A47EEF11F080EF11F090EF11F0010EF3
:10230200586E90EF11F00150D8A48AEF11F08CEFC3
:1023120011F090EF11F0C0EC12F091EF11F0FF0EFE
:102322001200546E5606D8A05706562806E15728C2
:10233200D8A49EEF11F0A0EF11F0CCEF11F0000E37
:10234200576E640E566E5404D8A4AAEF11F0ACEF87
:1023520011F0B8EF11F0640E5918D8B4B3EF11F0C0
:10236200B5EF11F0CCEF11F0592ACCEF11F0020EBB
:102372005418D8A4BFEF11F0C1EF11F0CCEF11F057
:102382005950D8B4C7EF11F0C9EF11F0CCEF11F0EA
:102392005906CCEF11F05950D0EC11F01200516EE9
:1023A200000E2C6E000E2D6E7A0E2E6E430E2F6EC8
:1023B200000E136E000E146EC80E156E420E166ECF
:1023C2005150016E026A036A046A000E44EC13F073
:1023D20001C00FF002C010F003C011F004C012F0EF
:1023E2001EEC14F00FC028F010C029F011C02AF022
:1023F20012C02BF0EBEC15F028C04DF029C04EF0C6
:102402002AC04FF02BC050F0000E2C6E000E2D6E25
:10241200800E2E6E400E2F6E4DC028F04EC029F059
:102422004FC02AF050C02BF0EBEC15F028C041F061
:1024320029C042F02AC043F02BC044F03DEC12F018
:1024420041C052F042C053F052C04BF053C04CF066
:10245200D8904C324B32D8904C324B324B50BE6EED
:1024620052C04BF0030E4B164B3AF00E4B16BD50BA
:10247200CF0B4B10BD6E1200433444344A6E4A50A7
:10248200D8A446EF12F048EF12F052EF12F0000E0D
:10249200416E000E426E000E436E000E446EBFEFA0
:1024A20012F041C045F042C046F043C047F044C07C
:1024B20048F0200E62EF12F0D8904832473246328E
:1024C2004532E82E5DEF12F04550496E438EFF0E05
:1024D2004116FF0E4216FF0E4316000E4416960ECC
:1024E2004A5E4ABE79EF12F077EF12F08FEF12F0E8
:1024F2004A50800A970FD8B081EF12F083EF12F0A2
:1025020085EF12F048EF12F0D89044324332423253
:1025120041324A3E85EF12F0A7EF12F01F0E4A64D5
:1025220095EF12F097EF12F09FEF12F048EF12F0D2
:10253200D89041364236433644364A064A50D8A4E9
:10254200A5EF12F0A7EF12F099EF12F04950D8B4AC
:10255200ADEF12F0AFEF12F0B7EF12F0441E431ED0
:10256200421E416C000E42224322442241C041F0ED
:1025720042C042F043C043F044C044F01200819A8A
:10258200818C818E81B2C8EF12F0CAEF12F0CDEFCA
:1025920012F0010E43EF13F081B4D2EF12F0D4EF38
:1025A20012F0D7EF12F0040E43EF13F081B6DCEF16
:1025B20012F0DEEF12F0E1EF12F0070E43EF13F02C
:1025C20081B8E6EF12F0E8EF12F0EBEF12F00A0E2C
:1025D20043EF13F0818A819C818E81B2F3EF12F076
:1025E200F5EF12F0F8EF12F0020E43EF13F081B4A0
:1025F200FDEF12F0FFEF12F002EF13F0050E43EFC2
:1026020013F081B607EF13F009EF13F00CEF13F09C
:10261200080E43EF13F081B811EF13F013EF13F02C
:1026220016EF13F00B0E43EF13F0818A818C819E1B
:10263200819E81B21FEF13F021EF13F024EF13F00C
:10264200030E43EF13F081B429EF13F02BEF13F0D5
:102652002EEF13F0060E43EF13F081B633EF13F0B3
:1026620035EF13F038EF13F0090E43EF13F081B892
:102672003DEF13F03FEF13F042EF13F00C0E43EF78
:1026820013F0FF0E1200096E0950D8B44BEF13F08D
:102692004DEF13F06FEF13F004BE54EF13F052EF4F
:1026A20013F06FEF13F001C005F002C006F003C093
:1026B20007F004C008F0051E061E071E081E052AA4
:1026C200000E06220722082205C00BF006C00CF0FD
:1026D20007C00DF008C00EF077EF13F001C00BF049
:1026E20002C00CF003C00DF004C00EF00150021045
:1026F20003100410D8A480EF13F082EF13F08CEFD4
:1027020013F0000E016E000E026E000E036E000E3C
:10271200046E1DEF14F0960E0A6E96EF13F00A2A5D
:10272200D8900E320D320C320B32000E0B14056EA5
:10273200000E0C14066E000E0D14076EFE0E0E1423
:10274200086E0550061007100810D8A4ABEF13F05E
:10275200ADEF13F090EF13F0BBEF13F00A2A010E66
:102762000B26000E0C220D220E22D8900E320D32B4
:102772000C320B32000E0B14056E000E0C14066E9A
:10278200000E0D14076EFF0E0E14086E0550061093
:1027920007100810D8A4D0EF13F0D2EF13F0AFEF68
:1027A20013F0DAEF13F00A06D8900B360C360D361A
:1027B2000E360DBEDFEF13F0E1EF13F0E9EF13F089
:1027C200020E0A60E7EF13F0E9EF13F0D4EF13F013
:1027D2000AB0EEEF13F0F0EF13F0F1EF13F00D9EED
:1027E200D8900A320AC005F0066A076A086A05C06C
:1027F20008F0076A066A056A05500B1206500C12A9
:1028020007500D1208500E120950D8B40BEF14F0F5
:102812000DEF14F015EF14F004BE14EF14F012EFE4
:1028220014F015EF14F00E8E0BC001F00CC002F084
:102832000DC003F00EC004F012001250800B1F6E88
:1028420012501224266E11AE29EF14F02BEF14F061
:102852002CEF14F026802650D8B432EF14F034EF67
:1028620014F049EF14F02628D8A43AEF14F03CEF04
:1028720014F044EF14F0000E0F6E000E106E000EF6
:10288200116E000E126E118E000E126E51EF14F0C8
:10289200000E0F6E000E106E000E116E000E126E04
:1028A2001650800B1F1A16501624276E15AE5CEFB9
:1028B20014F05EEF14F05FEF14F027802750D8B4C5
:1028C20065EF14F067EF14F07CEF14F02728D8A41A
:1028D2006DEF14F06FEF14F077EF14F0000E136E3B
:1028E200000E146E000E156E000E166E158E000E82
:1028F200166E84EF14F0000E136E000E146E000EAE
:10290200156E000E166E1350141015101610D8A462
:102912008DEF14F08FEF14F0A7EF14F0000E0F6E8E
:10292200000E106E000E116E000E126E800E11124D
:102932007F0E12121F5012120FC00FF010C010F0B3
:1029420011C011F012C012F0EAEF15F02650D8A40F
:10295200ADEF14F0AFEF14F0B9EF14F0000E0F6EFC
:10296200000E106E000E116E000E126EEAEF15F0E0
:10297200275026C017F0186A175E000E185A7F0EED
:102982001724206E000E1820216E0FC01BF010C0FD
:102992001CF011C01DF012C01EF0000E0F6E000ED2
:1029A200106E000E116E000E126E000E226E000EE0
:1029B200236E000E246E000E256E000E276E1AEF97
:1029C20015F02750D8B4E8EF14F0EAEF14F001EF55
:1029D20015F0D8901B361C361D361E36D8900F3691
:1029E20010361136123625AEF9EF14F0FBEF14F063
:1029F200FCEF14F00F80D890223623362436253689
:102A020013501B5C14501C5815501D5816501E585C
:102A1200D8A00EEF15F010EF15F019EF15F0258C78
:102A220013501B5E14501C5A15501D5A16501E5A34
:102A3200272A190E276420EF15F022EF15F0E2EF96
:102A420014F01B501C101D101E10D8B42BEF15F0E3
:102A52002DEF15F045EF15F0228045EF15F0D890D7
:102A62000F3610361136123625AE3AEF15F03CEF1E
:102A720015F03DEF15F00F80D8902236233624361C
:102A820025362006D8A0210611AE4AEF15F04CEFEC
:102A920015F030EF15F0000E276E25AE53EF15F04E
:102AA20055EF15F079EF15F0FF0E2214176EFF0E99
:102AB2002314186EFF0E2414196E7F0E25141A6E3D
:102AC2001750181019101A10D8B46AEF15F06CEFDD
:102AD20015F070EF15F0010E276E79EF15F00FA0CB
:102AE20075EF15F077EF15F079EF15F06CEF15F043
:102AF2002750D8B47FEF15F081EF15F0A5EF15F050
:102B0200010E0F26000E10221122122212A08CEFAB
:102B120015F08EEF15F0A5EF15F00FC017F010C0ED
:102B220018F011C019F012C01AF01A341A32193200
:102B32001832173217C00FF018C010F019C011F078
:102B42001AC012F0204A212A21BEB0EF15F02150FE
:102B520008E12028D8A0B0EF15F0B2EF15F0BDEFD4
:102B620015F0000E216E2068000E0F6E000E106E22
:102B7200000E116E000E126E21BECAEF15F021502A
:102B820006E12004D8B0C8EF15F0CAEF15F0D8EF6F
:102B920015F0000E216E000E206E000E0F6E000E5C
:102BA200106E000E116E000E126E000E1F6E20C00F
:102BB20026F026A0DFEF15F0E1EF15F0E4EF15F0B7
:102BC200118EE5EF15F0119ED8902630126E9BEF14
:102BD20014F012002B50800B346E2B502B243A6EC3
:102BE2002AAEF6EF15F0F8EF15F0F9EF15F03A808E
:102BF2003A50D8B4FFEF15F001EF16F014EF16F0CB
:102C02003A28D8A407EF16F009EF16F011EF16F0E4
:102C1200000E286E000E296E000E2A6E000E2B6E1C
:102C22002A8E1CEF16F0000E286E000E296E000E82
:102C32002A6E000E2B6E2F50800B341A2F502F2429
:102C4200396E2EAE27EF16F029EF16F02AEF16F0A6
:102C520039803950D8B430EF16F032EF16F045EF24
:102C620016F03928D8A438EF16F03AEF16F042EFF2
:102C720016F0000E2C6E000E2D6E000E2E6E000E43
:102C82002F6E2E8E4DEF16F0000E2C6E000E2D6E56
:102C9200000E2E6E000E2F6E3950D8B453EF16F080
:102CA20055EF16F05DEF16F03A50D8A45BEF16F030
:102CB2005DEF16F067EF16F0000E286E000E296E1B
:102CC200000E2A6E000E2B6EFFEF17F02E50280218
:102CD200F3CF3FF0F4CF40F03F50356E366A376A9B
:102CE200386A40503B6E3C6A3D6A3E6A2D5029026A
:102CF200F3CF3FF0F4CF40F03F503526000E36229E
:102D02003722382240503B26000E3C223D223E22F2
:102D12002C502A02F3CF3FF0F4CF40F03F5035263B
:102D2200000E36223722382240503B26000E3C222B
:102D32003D223E2237C038F036C037F035C036F07B
:102D4200356A2C502902F3CF3FF0F4CF40F03F50C8
:102D5200352640503622000E3722000E38222D50E2
:102D62002802F3CF3FF0F4CF40F03F5035264050D9
:102D72003622000E3722000E382237C038F036C015
:102D820037F035C036F0356A2C502802F3CF3FF0C9
:102D9200F4CF40F03F50352640503622000E372205
:102DA200000E38222E502902F3CF3FF0F4CF40F02C
:102DB2003F503B2640503C22000E3D22000E3E2258
:102DC2002D502A02F3CF3FF0F4CF40F03F503B2684
:102DD20040503C22000E3D22000E3E222E502A027E
:102DE200F3CF3FF0F4CF40F03F50306E4050316EA1
:102DF200326A336A32C033F031C032F030C031F05F
:102E0200306A30503B2631503C2232503D22335002
:102E12003E2235C030F036C031F037C032F038C013
:102E220033F0190E1AEF17F0D890333232323132B2
:102E32003032E82E15EF17F030503B2631503C224D
:102E420032503D2233503E2237C038F036C037F080
:102E520035C036F0356A39503AC030F0316A302622
:102E6200000E3122820E30243F6EFF0E3120406E62
:102E720050EF17F0D8903B363C363D363E3638AEF2
:102E820045EF17F047EF17F048EF17F03B80D89067
:102E920035363636373638363F06D8A040063DAE90
:102EA20055EF17F057EF17F03BEF17F0000E396EA2
:102EB20038AE5EEF17F060EF17F084EF17F0FF0EF9
:102EC2003514306EFF0E3614316EFF0E3714326E2B
:102ED2007F0E3814336E3050311032103310D8B4A4
:102EE20075EF17F077EF17F07BEF17F0010E396EE1
:102EF20084EF17F03BA080EF17F082EF17F084EF1A
:102F020017F077EF17F03950D8B48AEF17F08CEF3B
:102F120017F0B0EF17F0010E3B26000E3C223D22C7
:102F22003E223EA097EF17F099EF17F0B0EF17F09F
:102F32003BC030F03CC031F03DC032F03EC033F017
:102F42003334333232323132303230C03BF031C07E
:102F52003CF032C03DF033C03EF03F4A402A40BE12
:102F6200BBEF17F0405008E13F28D8A0BBEF17F0A5
:102F7200BDEF17F0C7EF17F0000E3B6E000E3C6E70
:102F8200800E3D6E7F0E3E6EF5EF17F040BED4EF21
:102F920017F0405006E13F04D8B0D2EF17F0D4EF5B
:102FA20017F0E0EF17F0000E3B6E000E3C6E000EC5
:102FB2003D6E000E3E6E000E346EF5EF17F03FC010
:102FC2003AF0FF0E3B16FF0E3C167F0E3D16000E2A
:102FD2003E163AA0EFEF17F0F1EF17F0F2EF17F00D
:102FE2003D8ED8903A303E6E34503E123BC028F0AF
:0E2FF2003CC029F03DC02AF03EC02BF012007A
:020000040020DA
:08000000FFFFFFFFFFFFFFFF00
:020000040030CA
:0E000000FF071F1FFF8285FF0FC00FE00F409C
:00000001FF
