:0400000007EF00F016
:10000800068235ED00F03CEF00F02DEC00F005A085
:1000180006D0059081BE02D0818E01D0819E000E4F
:10002800026E320E016E0CD0C30E046E500E036EBB
:100038000306D8A004060328FBE10428D8A4F8D7AF
:100048000106D8A002060128EFE10228D8B4DFD7BC
:10005800EBD70F0EC16E939C938042EC00F0F28EAA
:1000680012000600F2A202D00580F2920692110058
:10007800056A06900692000109EF00F0F18CF292F1
:04008800F2881200E8
:00000001FF
