:020000040000FA
:04000000CBEF17F03B
:102F96000001D6EF17F00F0EC16E000E816E000E07
:102FA600936E81821200CEEC17F08180000E026EC5
:102FB600640E016E0106D8A00206012806E1022869
:102FC600D8A4E8EF17F0EAEF17F0DDEF17F08190DD
:102FD600030E026EE80E016E0106D8A00206012855
:102FE60006E10228D8A4FAEF17F0FCEF17F0EFEF8E
:0A2FF60017F0D8EF17F000EF00F01D
:020000040020DA
:08000000FFFFFFFFFFFFFFFF00
:020000040030CA
:0E000000FF071F1FFF8285FF0FC00FE00F409C
:00000001FF
