:020000040000FA
:0400000007EF00F016
:10000800038209ED00F04BEF00F00600F2A40FEFB9
:1000180000F011EF00F033EF00F0080ED624D66E92
:10002800000ED720D76E014A022A210E011807E1D7
:100038004E0E0218D8A423EF00F025EF00F032EF9F
:1000480000F0000E026E000E016E81A02EEF00F08F
:1000580031EF00F0818032EF00F08190F29403924A
:100068001100F28C000E816E000E936E0F0EC16EA1
:1000780040EC00F0F28E1200D58CD59AD58ED5863C
:10008800000ED76E060ED66EF294F28A1200026A3D
:10009800016A03900392000152EF00F035EC00F082
:0800A80054EF00F007EF00F037
:020000040020DA
:08000000FFFFFFFFFFFFFFFF00
:020000040030CA
:0E000000FF071F1FFF8285FF0FC00FE00F409C
:00000001FF
