:020000040000FA
:040000009EEF16F069
:102D0D00E721CB6B2D6EEE23EF6F01000E956E92CA
:102D1D0050F00B926E8050F00B806E12000C6E0C0A
:102D2D00C0A9FFA694A69EA69CA680A85012000D31
:102D3D000EF66E2D0EF76E000EF86E00EE01F01011
:102D4D00EE0BF00900F5CFEEFFE550E150FAE12171
:102D5D006A206A1F6A1E6A00015CEF17F00D6E0D86
:102D6D00C0A9FF0CC0A8FFA69EA69CA684F29E55E6
:102D7D000EA76EAA0EA76EA682F28EA1A8C9EF1697
:102D8D00F0CBEF16F0C4EF16F0A19812008CEC16F4
:102D9D00F0000E95EC16F00D6E0D501C6E1D6A01B7
:102DAD000E95EC16F00D6E0D501A6E1B6A020E95F7
:102DBD00EC16F00D6E0D50186E196A030E95EC168B
:102DCD00F00D6E0D50166E176A1200000E126E1277
:102DDD00500C24D96E000E0D20DA6EDF50836E126A
:102DED00C00EF0010E0F6E0E2AFFEF16F0D8900FE9
:102DFD00360E2EFDEF16F08050F00B0F10806E0387
:102E0D000E116EE80E106E1006D8A01106102806D1
:102E1D00E11128D8A415EF17F017EF17F00AEF17E7
:102E2D00F0122A030E12641EEF17F020EF17F0EECA
:102E3D00EF16F012000C6E0C04D8A428EF17F02A30
:102E4D00EF17F050EF17F082500F0B0F0AD8B43276
:102E5D00EF17F034EF17F042EF17F00B50D8B43AEC
:102E6D00EF17F03CEF17F042EF17F0000E0B6E82EC
:102E7D00500F0B5BEF17F082500F0B0F0AD8A44ABF
:102E8D00EF17F04CEF17F05AEF17F0010E0B6E5ACB
:102E9D00EF17F00C50D8A456EF17F058EF17F05A63
:102EAD00EF17F03EEF17F0FF0E1200CDEC16F0000D
:102EBD000E146E000E136E010E21EC17F0156E0E32
:102ECD000E1518D8A46DEF17F06FEF17F083EF17ED
:102EDD00F01CC00CF0000EB5EC16F01AC00CF00191
:102EED000EB5EC16F018C00CF0020EB5EC16F0167F
:102EFD00C00CF0030EB5EC16F0134A142A2D0E1368
:102F0D001806E11404D8A48EEF17F090EF17F0D641
:102F1D00EF17F0000E146E000E136E1C4A1D2A0BD7
:102F2D000E1C181D10D8A49EEF17F0A0EF17F0D6A9
:102F3D00EF17F0000E1D6E000E1C6E1A4A1B2A0BA9
:102F4D000E1A181B10D8A4AEEF17F0B0EF17F0D66D
:102F5D00EF17F0000E1B6E000E1A6E184A192A0B91
:102F6D000E18181910D8A4BEEF17F0C0EF17F0D631
:102F7D00EF17F0000E196E000E186E164A172A0B79
:102F8D000E16181710D8A4CEEF17F0D0EF17F0D6F5
:102F9D00EF17F0000E176E000E166ED6EF17F0013C
:102FAD000E1C24D96E000E1D20DA6EDF50216E012D
:102FBD000E1A24D96E000E1B20DA6EDF50206E0122
:102FCD000E1824D96E000E1920DA6EDF501F6E0117
:102FDD000E1624D96E000E1720DA6EDF501E6E1EEF
:102FED000E0C6E000E0D6EECEC16F062EF17F0008D
:032FFD00EF00F0F2
:020000040020DA
:08000000FFFFFFFFFFFFFFFF00
:020000040030CA
:0E000000FF071F1FFF8285FF0FC00FE00F409C
:00000001FF
