:020000040000FA
:04000000B6EF03F064
:070600000061626364000069
:10060800000E956E9450F80B946E8290C30E036E94
:10061800CD0EE82EFED7032EFCD700F0000E016E9B
:10062800330E7AEC03F01B0E036E9E0EE82EFED7F7
:10063800032EFCD700D0000E016E330E7AEC03F0C7
:10064800A60EE82EFED700D0000E016E330E7AEC0F
:1006580003F000D000D000F0000E016E020E7AEC1C
:1006680003F0A60EE82EFED700D0000E016E380E5D
:100678007AEC03F0A60EE82EFED700D0000E016E2D
:10068800010E7AEC03F0040E036E3E0EE82EFED740
:10069800032EFCD7000E016E0C0E7AEC03F0A60EAA
:1006A800E82EFED700D01200000E016E05507AEC3D
:1006B80003F06BEF03F0010E016E03C0F6FF04C0F8
:1006C800F7FF0800F5507AEC03F0034A042A03C048
:1006D800F6FF04C0F7FF0800F5500009D8A477EF2B
:1006E80003F079EF03F05FEF03F01200026E01B040
:1006F80080EF03F083EF03F0828284EF03F08292AD
:1007080002C083FF82848294958E82808292828442
:10071800829483BE92EF03F094EF03F08BEF03F023
:100728008290959E1200BDEC03F0800E036E480E79
:10073800AAEC03F0010E036E060E046EC40E056EDD
:1007480058EC03F099EF03F000EF00F0046E000E90
:10075800016E03507AEC03F0010E016E04507AEC3E
:1007680003F01200000EF86E060EF76E000197EF08
:0807780003F004EC03F0120091
:020000040020DA
:08000000FFFFFFFFFFFFFFFF00
:020000040030CA
:0E000000FF071F1FFF8285FF0FC00FE00F409C
:00000001FF
