:0400000058EF04F0C1
:100600000054782044415441203A202D2D3E202092
:10061000200052782044415441203A203C2D2D00A6
:1006200043414E204275732044656D6F0000819AEE
:10063000818C818E81B202D0010E120081B402D071
:10064000040E120081B602D0070E120081B802D04B
:100650000A0E1200818A819C818E81B202D0020E24
:10066000120081B402D0050E120081B602D0080E2D
:10067000120081B802D00B0E1200818A818C819EFB
:10068000819E81B202D0030E120081B402D0060E08
:10069000120081B602D0090E120081B802D00C0EF1
:1006A0001200FF0E1200010ED0EC03F0156E1504BF
:1006B000D8A40ED0010E116EC00E126E41EC04F0E3
:1006C000EFEC03F0030E106EE80E0F6E27EC04F053
:1006D000AEEC03F00009D8B41200120E116EC00E79
:1006E000126E41EC04F0000E166E10D0CE0E116E9C
:1006F0001650060FD96EDA6ADF508FEC04F0162A16
:10070000010E106EF40E0F6E27EC04F0080E161892
:10071000D8B41200EBD7939493861F0E6F166F8E8A
:10072000800E6E18D8A4FCD7000E776EE10E706EA6
:100730001B0E716E030E726E010E0D01D46F000E52
:100740000F01026F000E036F6B0E006FC00E016F82
:100750001F0E6F166F8C000E606E120060AE1ED002
:1007600063CF01F064CF02F061CF03F062CF04F0F9
:1007700065CF05F066CF06F067CF07F068CF08F0C9
:1007800069CF09F06ACF0AF06BCF0BF06CCF0CF099
:100790006DCF0DF0609EA490010E1200000E1200AD
:1007A0000F6E0F04D8A413D017EC03F00E6E0E28B2
:1007B000D8B407D01750D8B404D0000E176E0E501E
:1007C00012000E28D8A409D0010E176E06D00F50C3
:1007D000D8A403D017EC03F01200FF0E1200000E95
:1007E0000F01436F000E446F6B0E416FC00E426FDE
:1007F000080E456F410E466F420E476F430E486F1D
:10080000440E496F450E4A6F460E4B6F470E4C6FB4
:10081000480E4D6F40871200000E956E9450F80BF5
:10082000946E8290000E0F6E020E6EEC04F0000EBD
:100830000F6E380E6EEC04F0000E0F6E0C0E6EECA8
:1008400004F0000E0F6E010E6EEC04F01200000EAC
:10085000146E000E136E0ED0010E126EF40E116E99
:100860001106D8A012061128FBE11228D8A4F8D747
:10087000134A142A0F50135C10501458D8B01200A9
:10088000EBD7000E0F6E12506EEC04F009D0010E83
:100890000F6E11C0F6FF0800F5506EEC04F0112A3F
:1008A00011C0F6FF0800F5500009D8B41200EFD7C8
:1008B000520EF66E090EF76E000EF86E0900F5CFB7
:1008C00017F000EE01F00E0EEE6AE806FDE1000EF4
:1008D000F86E060EF76E0001A4EF04F0106E0FA084
:1008E00002D0828201D0829210C083FF82848294DF
:1008F000958E828082928284829483BEFCD782907D
:10090000959E12009BEC04F00CEC04F08BEC03F0D1
:10091000200E116E820E126E41EC04F01200126E67
:10092000000E0F6E11506EEC04F0010E0F6E12509F
:100930006EEC04F012000F0EC16E1E0E936EF19E4F
:100940008150E009816E120082EC04F053EC03F058
:03095000FDD701CF
:00000001FF
