:04000000BBEF17F04B
:102F76000001CCEF17F081909390DCEC17F0120073
:102F86000104020E0258D8A002D08180120081905E
:102F96001200BEEC17F0040EEDEC17F001C007F0BE
:102FA60002C008F007C001F008C002F0C3EC17F039
:102FB600F2D7C08EC09AC088C096C090C082C09416
:102FC600C292C288C19AC198000EC46E000EC36E2A
:102FD600C2801200C282C2B2FED7C350C4CF03F071
:102FE600046A03C004F0036A0310056E0450066EFB
:0A2FF60005C001F006C002F0120051
:00000001FF
