:0400000085EF03F095
:1006000000456D657274786520496E666F726D6124
:1006100074696F6E20546563686E6F6C6F6769658F
:10062000732E20507265737320616E79206B65792B
:1006300020746F20636F6E74696E75650A0D0059C2
:100640006F752073686F756C6420676574206261D4
:10065000636B20776861746576657220796F7520A9
:10066000747970653A0A0D0057656C636F6D652E7D
:100670002054686973206973205541525420546591
:10068000737420436F64652E0A0D0000948E949C51
:10069000AC9CAC8AAC98AC96AC84AB8EAB9CAB8873
:1006A000B89EB896B892B890810EAF6E9D889E980D
:1006B0009D8A9E9A12007CEC03F0680E026E6CEC30
:1006C00003F03F0E026E6CEC03F08CEC03F0880E2E
:1006D000026E6CEC03F0F9D707D002C0F6FF0800F9
:1006E000F55093EC03F0022A02C0F6FF0800F55023
:1006F0000009D8B41200F1D746EC03F0010E026EE7
:100700006CEC03F099EC03F01200000EF86E060E8C
:10071000F76E00015BEF03F099EC03F0026E0250FC
:1007200093EC03F01200016E9EA8FED701C0ADFF4E
:0A07300012009EAAFED7AE50120080
:00000001FF
