:020000040000FA
:0400000007EF00F016
:10000800068246ED00F05BEF00F053EC00F005507F
:10001800D8B411EF00F013EF00F01EEF00F0000E5F
:10002800056E81AE1AEF00F01DEF00F0818E1EEF15
:1000380000F0819E000E026E320E016E35EF00F068
:10004800C30E046E500E036E0306D8A004060328E0
:1000580006E10428D8A433EF00F035EF00F028EFCC
:1000680000F00106D8A00206012806E10228D8A45B
:1000780040EF00F042EF00F024EF00F00BEF00F04B
:1000880007EF00F00600F2A24CEF00F04EEF00F090
:1000980051EF00F0010E056EF292069211000F0E5C
:1000A800C16E939E938061EC00F0F28E1200056A97
:1000B80006900692000109EF00F0F18CF292F288A6
:0200C800120024
:020000040020DA
:08000000FFFFFFFFFFFFFFFF00
:020000040030CA
:0E000000FF071F1FFF8285FF0FC00FE00F409C
:00000001FF
