:0400000093EF17F073
:102EA400E721CB6B2D6EEE23EF6F000E956E9250E3
:102EB400F00B926E8050F00B806E12000B6E0BC004
:102EC400A9FFA694A69EA69CA680A85012000C6EEC
:102ED4000CC0A9FF0BC0A8FFA69EA69CA684F29EC8
:102EE400550EA76EAA0EA76EA682F28EA1A8FED7D3
:102EF400A198120057EC17F0010E0B6E000E69EC4E
:102F040017F0020E0B6E010E69EC17F0030E0B6E38
:102F1400020E69EC17F0040E0B6E030E69EC17F049
:102F24001200A40EF66E2E0EF76E000EF86E00EE72
:102F340001F010EE0AF00900F5CFEEFFE550E15084
:102F4400FAE1156A146A136A126A0001D1EF17F0E4
:102F5400000E106E0B501024D96EDA6ADF50836EA7
:102F640010C00CF0010E0D6E0C2A02D0D8900D3654
:102F74000C2EFCD78050F00B0D10806E030E0F6EDC
:102F8400E80E0E6E0E06D8A00F060E28FBE10F28E1
:102F9400D8A4F8D7102A030E1064DCD712007CECF6
:102FA40017F0000E60EC17F0116E1150010FD96E7E
:102FB400DA6ADF50156E010E60EC17F0116E1150D5
:102FC400010FD96EDA6ADF50146E020E60EC17F04E
:102FD400116E1150010FD96EDA6ADF50136E030EB1
:102FE40060EC17F0116E1150010FD96EDA6ADF50E0
:0C2FF400126E120E0B6EAAEC17F0D3D771
:00000001FF
