:020000040000FA
:04000000A3EF17F063
:102F46000001CAEF17F081909390BAEC17F01200C7
:102F56000104020E0258D8A0B3EF17F0B5EF17F030
:102F6600B8EF17F08180B9EF17F081901200C08E8C
:102F7600C09AC088C096C090C082C094C292C19ABE
:102F8600C198000EC46E000EC36EC2801200A6EC7D
:102F960017F0040EDDEC17F001C008F002C009F0CE
:102FA60008C001F009C002F0ABEC17F0CCEF17F047
:102FB60000EF00F0076E07C003F0D8900336D890F4
:102FC6000336C250C30B0310C26EC282C2B2EEEF0A
:102FD60017F0F0EF17F0E9EF17F0C350C4CF03F086
:102FE600046A03C004F0036A0310056E0450066EFB
:0A2FF60005C001F006C002F0120051
:020000040020DA
:08000000FFFFFFFFFFFFFFFF00
:020000040030CA
:0E000000FF071F1FFF8285FF0FC00FE00F409C
:00000001FF
