:020000040000FA
:04000000FEEF17F008
:10060000000040EC04F0106A000E0F6E0E6A000E3F
:100610000D6E0FC008F010C009F00B6A0A0E0A6ECA
:10062000EAEC03F00850110FD96EDA6ADF501E6E43
:10063000046A0A0E036E0FC001F010C002F07FECD6
:1006400003F001C008F002C009F00B6A0A0E0A6E3E
:10065000EAEC03F00850110FD96EDA6ADF501D6E14
:10066000046A640E036E0FC001F010C002F07FEC4C
:1006700003F001C008F002C009F00B6A0A0E0A6E0E
:10068000EAEC03F00850110FD96EDA6ADF501C6EE5
:100690000FC001F010C002F0030E046EE80E036EEE
:1006A0007FEC03F00150110FD96EDA6ADF501B6E38
:1006B0001B0E016EB8EC03F00D4A0E2A380E0D1811
:1006C0000E10D8A466EF03F068EF03F009EF03F013
:1006D0000F4A102A0E6A000E0D6E100E0F5C270EC8
:1006E0001058D8A076EF03F078EF03F009EF03F08D
:1006F000106A000E0F6E09EF03F0FEEF17F0066AA6
:10070000000E056E03500410D8B489EF03F08BEF90
:1007100003F0B3EF03F0010E076E93EF03F0D890F0
:1007200003360436072A04AE98EF03F09AEF03F07D
:100730008FEF03F0D890053606360350015C045065
:100740000258D8A0A6EF03F0A8EF03F0ADEF03F036
:100750000350015E0450025A0580D89004320332DF
:10076000072E9AEF03F005C001F006C002F0120058
:10077000066A01500624D96EDA6ADF50836E06C01D
:1007800002F0010E036E022AC8EF03F0D890033680
:10079000022EC6EF03F08050F00B0310806E030EA4
:1007A000056EE80E046E0406D8A00506042806E1CE
:1007B0000528D8A4DEEF03F0E0EF03F0D3EF03F059
:1007C000062A030E0664E7EF03F0E9EF03F0B9EF42
:1007D00003F012000A500B10D8B4F1EF03F0F3EF5E
:1007E00003F017EF04F0010E0C6EFBEF03F0D8904E
:1007F0000A360B360C2A0BAE00EF04F002EF04F0C1
:10080000F7EF03F00A50085C0B500958D8A00BEF23
:1008100004F00DEF04F011EF04F00A50085E0B50E5
:10082000095AD8900B320A320C2E02EF04F008C09D
:1008300008F009C009F01200760EF66E080EF76E89
:10084000000EF86E00EE11F010EE0AF00900F5CF80
:10085000EEFFE550E150FAE11E6A1D6A1C6A1B6A50
:10086000000101EF03F0956A9250F00B926E8050F8
:10087000F00B806E1200E721CB6B2D6EEE23EF6F35
:0608800033EC04F012004D
:042FFC001CEF04F0D2
:020000040020DA
:08000000FFFFFFFFFFFFFFFF00
:020000040030CA
:0E000000FF071F1FFF8285FF0FC00FE00F409C
:00000001FF
