:020000040000FA
:040000005FEF17F0A7
:102E9400320194500F09946E12000F0EC16E81908E
:102EA400000E936E4BEC17F012004FEC17F0ACECE5
:102EB40017F059EF17F000EF00F0940EF66E2E0E97
:102EC400F76E000EF86E0900F5CF04F00900F5CF97
:102ED40005F0036A026A016A000157EF17F0066EF3
:102EE4000604D8A478EF17F07AEF17F0A0EF17F0E4
:102EF40082500F0B0F0AD8B482EF17F084EF17F04B
:102F040092EF17F00550D8B48AEF17F08CEF17F052
:102F140092EF17F0000E056E82500F0BABEF17F017
:102F240082500F0B0F0AD8A49AEF17F09CEF17F0FA
:102F3400AAEF17F0010E056EAAEF17F00650D8A4F9
:102F4400A6EF17F0A8EF17F0AAEF17F08EEF17F01F
:102F5400FF0E1200000E71EC17F0076E0106D8A0E8
:102F64000206012806E10228D8A4BBEF17F0BDEF42
:102F740017F0E6EF17F0000E026E640E016E0E0EEF
:102F84000718D8A4C8EF17F0CAEF17F0D4EF17F05A
:102F9400640E0418D8B4D1EF17F0D3EF17F0D4EFC0
:102FA40017F0042A0D0E0718D8A4DBEF17F0DDEF95
:102FB40017F0E6EF17F00450D8B4E3EF17F0E5EF9D
:102FC40017F0E6EF17F004060450035CD8B0EDEFF9
:102FD40017F0EFEF17F0F2EF17F08180F3EF17F02F
:102FE4008190032A650E0318D8A4FBEF17F0FDEFB8
:0C2FF40017F0FFEF17F0000E036E120044
:020000040020DA
:08000000FFFFFFFFFFFFFFFF00
:020000040030CA
:0E000000FF071F1FFF8285FF0FC00FE00F409C
:00000001FF
