:04000000C5EF17F041
:102F600094500F09946E12000F0EC16E81909390D1
:102F7000B0EC17F01200B4EC17F0000EE2EC17F012
:102F8000036E0350D1EC17F0F8D7000EF66E300E3A
:102F9000F76E000EF86E0900F5CF04F00001BBEFEC
:102FA00017F0026E0D0E0218D8A4120081B003D0E3
:102FB000016A012A01D0016A81500118FE0B011833
:102FC000816E1200016E0104D8A415D082500F0B3F
:102FD0000F0AD8B408D00450D8B405D0000E046E3F
:102FE00082500F0B120082500F0B0F0AD8A406D08C
:102FF000010E046E03D00150D8B4F2D7FF0E1200B8
:0130000001CE
:00000001FF
