:020000040000FA
:0400000007EF00F016
:10000800038225ED00F03DEF00F034EC00F00150E4
:100018000210D8B412EF00F014EF00F00BEF00F06C
:10002800000E026E000E016E81AC1DEF00F020EF95
:1000380000F0818C21EF00F0819C0BEF00F007EFBE
:1000480000F00600F2A22BEF00F02DEF00F032EFE7
:1000580000F0000E026E010E016EF2920392110082
:10006800F28C0F0EC16E939C938044EC00F0F28EDC
:100078001200026A016A03900392000109EF00F07E
:08008800F18CF292F2881200E3
:020000040020DA
:08000000FFFFFFFFFFFFFFFF00
:020000040030CA
:0E000000FF071F1FFF8285FF0FC00FE00F409C
:00000001FF
