:020000040000FA
:040000003BEF04F0DE
:1006000000202044533133303720205445535420A8
:090610002000414D00504D000096
:10061A00020E08EC04F0056E010E08EC04F0066EFA
:10062A00000E08EC04F0076E05AC1EEF03F020EF95
:10063A0003F02BEF03F005380F0B010B300F136E8D
:10064A0005500F0B300F146E34EF03F005380F0B03
:10065A00030B300F136E05500F0B300F146E3A0E4A
:10066A00156E06380F0B0F0B300F166E06500F0B58
:10067A00300F176E3A0E186E07380F0B0F0B300F2C
:10068A00196E07500F0B300F1A6E000E1B6E1200F8
:10069A00000E1C6E2050D0EC03F06AEF03F0010E3E
:1006AA001C6E1EC0F6FF1FC0F7FFF86A050EF7643E
:1006BA0003D00800F55005D0F6CFE9FFF7CFEAFFDF
:1006CA00EF50D0EC03F01E4A1F2A1EC0F6FF1FC0CF
:1006DA00F7FFF86A050EF76403D00800F55005D055
:1006EA00F6CFE9FFF7CFEAFFEF500009D8A480EF71
:1006FA0003F082EF03F054EF03F01200130E1E6EA4
:10070A00000E1F6EC20E206E4DEC03F005AC90EF8A
:10071A0003F092EF03F0ABEF03F005AA97EF03F0B3
:10072A0099EF03F0A3EF03F0150E1E6E060E1F6E6F
:10073A00CC0E206E4DEC03F0ABEF03F0120E1E6EE2
:10074A00060E1F6ECC0E206E4DEC03F01200000E4A
:10075A0008EC04F01F6E1F5080091D6E000E2CEC71
:10076A0004F0020E08EC04F01F6E1F5040091D6EC3
:10077A00020E2CEC04F0930E1D6E070E2CEC04F006
:10078A00000E08EC04F01F6E1F507F0B1D6E000E4A
:10079A002CEC04F012001D6E1CB0D6EF03F0D9EF5A
:1007AA0003F08282DAEF03F082921DC083FF828413
:1007BA008294958E828082928284829483BEE8EFAC
:1007CA0003F0EAEF03F0E1EF03F08290959E120046
:1007DA00000E956E9450F80B946E8290000E1C6E6B
:1007EA00020ED0EC03F0000E1C6E380ED0EC03F0B3
:1007FA00000E1C6E0C0ED0EC03F0000E1C6E010EE7
:10080A00D0EC03F012001D6E74EC04F0D00E64EC10
:10081A0004F01D5064EC04F078EC04F0D10E64ECA2
:10082A0004F06AEC04F01E6E70EC04F01E50120024
:10083A00EDEC03F046EC04F0ACEC03F0010E1E6E96
:10084A00060E1F6E800E206E4DEC03F012001E6E17
:10085A0074EC04F0D00E64EC04F01E5064EC04F066
:10086A001D5064EC04F070EC04F0120000EE01F08C
:10087A001B0EEE6AE806FDE1000EF86E000151EF6C
:10088A0004F094869488280EC66E310EC86EC79CF2
:10089A00C78E9E96A19612001DEC04F00DEC03F093
:1008AA0083EC03F053EF04F000EF00F09EA660EF34
:1008BA0004F062EF04F05BEF04F09E9612001C6EE7
:1008CA001CC0C9FF5BEC04F012007CEC04F080EC65
:1008DA0004F0C9501200C5845BEC04F01200C58014
:1008EA005BEC04F01200C5825BEC04F01200C586D2
:0C08FA005BEC04F01200C58AC5881200F7
:020000040020DA
:08000000FFFFFFFFFFFFFFFF00
:020000040030CA
:0E000000FF071F1FFF8285FF0FC00FE00F409C
:00000001FF
