:0400000081EF15F087
:102A8C0001320F0EC16E1E0E936EF19E8150E00945
:102A9C00816E1200000E816E000E936E949447ECC2
:102AAC0015F064EC15F0120050EC15F0000E93ECE0
:102ABC0015F0406E4050B2EC15F0F8D794500B0B5B
:102ACC00946E7C0ECB6ECA80CA92CA840C0EBD6EFC
:102ADC0012000C6E0C50016E026A036A8E0E046EAC
:102AEC00000E056E53EC16F001C009F002C00AF09E
:102AFC0003C00BF012008C0EF66E2A0EF76E000E51
:102B0C00F86E0900F5CF44F00900F5CF45F0436AA3
:102B1C00426A416A00015AEF15F0016E0104D8A413
:102B2C0013D0D3EC15F0436E4328D8B407D04450DF
:102B3C00D8B404D0000E446E435012004328D8A4DD
:102B4C0009D0010E446E06D00150D8A403D0D3ECAA
:102B5C0015F01200FF0E12003F6E4106D8A042067F
:102B6C00412817E14228D8A414D0000E426E000E62
:102B7C00416E3F04D8A406D0640E4518D8B409D0D1
:102B8C00452A07D0020E3F18D8A403D04550D8A42C
:102B9C00450645500FEC16F01200819A818C818EFF
:102BAC0081B202D0010E120081B402D0040E1200C8
:102BBC0081B602D0070E120081B802D00A0E1200A4
:102BCC00818A819C818E81B202D0020E120081B466
:102BDC0002D0050E120081B602D0080E120081B888
:102BEC0002D00B0E1200818A818C819E819E81B253
:102BFC0002D0030E120081B402D0060E120081B670
:102C0C0002D0090E120081B802D00C0E1200FF0E79
:102C1C0012003C6E000E1F6E7A0E206E440E216E5A
:102C2C00000E106EC80E116E420E126E3C506FEC00
:102C3C0015F009C00DF00AC00EF00BC00FF013EC2C
:102C4C0017F00DC01CF00EC01DF00FC01EF086EC6E
:102C5C0017F01CC02BF01DC02CF01EC02DF0AAECE0
:102C6C0016F02BC03DF02CC03EF03DC03AF03EC0FB
:102C7C003BF0D8903B323A32D8903B323A323A5011
:102C8C00BE6E3DC03AF0030E3A163A3AF00E3A16C2
:102C9C00BD50CF0B3A10BD6E12000450D8B405D005
:102CAC00015002100310D8A40CD0000E016E000EBF
:102CBC00026E000E036E1200042AD8900332023208
:102CCC000132000E0114066E000E0214076EFE0E89
:102CDC000314086E065007100810D8B40CD0ECD7AB
:102CEC00042A010E0126000E0222000E0322D890A7
:102CFC00033202320132000E0114066E000E021471
:102D0C00076EFF0E0314086E065007100810D8B497
:102D1C0006D0E6D70406D89001360236033602BE3A
:102D2C0003D0020E0460F6D704A0029ED8900432A1
:102D3C00045003120550D8A4038E01C001F002C048
:102D4C0002F003C003F012002DC02FF0306A316A7C
:102D5C002C342F3601E330802F50396E3950D8A4E3
:102D6C0009D0000E2B6E000E2C6E000E2D6E000E78
:102D7C002E6E1200170E2F6E2BC030F02CC031F0BF
:102D8C002DC032F02F28336E04D0D890323231322D
:102D9C003032332EFAD73050346E2C8EFF0E2B1669
:102DAC00FF0E2C16000E2D162B50356E2C50366E39
:102DBC002D50376E386A8E0E395E39AE0DD03950C3
:102DCC00800A8F0FD8A0CDD7D89038323732363210
:102DDC003532393EF9D70DD0170E396407D0C1D72B
:102DEC00D890353636363736383639063950D8A479
:102DFC00F7D73450D8B408D0381E371E361E356C71
:102E0C00000E36223722382235C02BF036C02CF07B
:102E1C0037C02DF038C02EF012000FC013F0146A1A
:102E2C00156A0E34133601E3148013501A6E1A50BF
:102E3C00D8A407D0000E0D6E000E0E6E000E0F6E95
:102E4C00120012C013F0146A156A1134133601E320
:102E5C00148013501B6E1B50D8A407D0000E0D6E9F
:102E6C00000E0E6E000E0F6E1200000E176E000E8E
:102E7C00186E000E196E1B50890F1A5E0FC01BF0D6
:102E8C0012501B1A800E1B160E8EFF0E0D16FF0E07
:102E9C000E16000E0F16118EFF0E1016FF0E1116C9
:102EAC00000E1216180E166ED890173618361936E4
:102EBC0010500D5C11500E5812500F58D8A007D05E
:102ECC0010500D5E11500E5A12500F5A1780D89098
:102EDC000D360E360F36162EE7D717C001F018C078
:102EEC0002F019C003F01AC004F01BC005F053EC3B
:102EFC0016F001C00DF002C00EF003C00FF012006E
:102F0C001EC022F0236A246A1D34223601E323807A
:102F1C002250256E2550D8A407D0000E1C6E000E32
:102F2C001D6E000E1E6E120021C022F0236A246A50
:102F3C002034223601E3238022502A6E2A50D8A452
:102F4C0007D0000E1C6E000E1D6E000E1E6E1200C1
:102F5C002A507B0F25261EC02AF021502A1A800EDB
:102F6C002A161D8E208EFF0E1F16FF0E2016000E29
:102F7C002116000E266E000E276E000E286E070E10
:102F8C00296E1CA006D01F50262620502722215027
:102F9C002822D8901E321D321C32D8901F36203673
:102FAC002136292EEED7090E296E1CA006D01F50F3
:102FBC0026262050272221502822D8901E321D323E
:102FCC001C32D890283227322632292EEED726C032
:102FDC0001F027C002F028C003F025C004F02AC07D
:102FEC0005F053EC16F001C01CF002C01DF003C03C
:042FFC001EF01200B1
:00000001FF
