:020000040000FA
:040000003EEF05F0DA
:1006000000204D617472697820204B6579706164B7
:100610002000204E6F204B65792050726573736502
:090620006420004B657920000004
:10062A00819A818C818E81B21DEF03F01FEF03F056
:10063A0022EF03F0010E98EF03F081B427EF03F0E5
:10064A0029EF03F02CEF03F0040E98EF03F081B6C4
:10065A0031EF03F033EF03F036EF03F0070E98EFB4
:10066A0003F081B83BEF03F03DEF03F040EF03F0F6
:10067A000A0E98EF03F0818A819C818E81B248EF3D
:10068A0003F04AEF03F04DEF03F0020E98EF03F088
:10069A0081B452EF03F054EF03F057EF03F0050E65
:1006AA0098EF03F081B65CEF03F05EEF03F061EFC1
:1006BA0003F0080E98EF03F081B866EF03F068EFD5
:1006CA0003F06BEF03F00B0E98EF03F0818A818C35
:1006DA00819E819E81B274EF03F076EF03F079EF89
:1006EA0003F0030E98EF03F081B47EEF03F080EF7E
:1006FA0003F083EF03F0060E98EF03F081B688EF5C
:10070A0003F08AEF03F08DEF03F0090E98EF03F080
:10071A0081B892EF03F094EF03F097EF03F00C0E19
:10072A0098EF03F0FF0E1200000E066E04BEA2EF51
:10073A0003F0A0EF03F0A8EF03F0036C041ED8B097
:10074A00042A010E066E02BEAFEF03F0ADEF03F00E
:10075A00B5EF03F0016C021ED8B0022A010E061A88
:10076A00000E086E000E076E03500410D8B4C0EFD6
:10077A0003F0C2EF03F0EAEF03F0010E056ECAEFD1
:10078A0003F0D89003360436052A04AECFEF03F0FF
:10079A00D1EF03F0C6EF03F0D890073608360350BE
:1007AA00015C04500258D8A0DDEF03F0DFEF03F03C
:1007BA00E4EF03F00350015E0450025A0780D89018
:1007CA0004320332052ED1EF03F00650D8B4F0EF0D
:1007DA0003F0F2EF03F0F6EF03F0076C081ED8B04F
:1007EA00082A07C001F008C002F01200000E066EC7
:1007FA0002BE04EF04F002EF04F00AEF04F0016C09
:10080A00021ED8B0022A010E066E04BE11EF04F0D1
:10081A000FEF04F015EF04F0036C041ED8B0042A9D
:10082A0003500410D8B41CEF04F01EEF04F042EF9A
:10083A0004F0010E056E26EF04F0D8900336043654
:10084A00052A04AE2BEF04F02DEF04F022EF04F09A
:10085A000350015C04500258D8A036EF04F038EF78
:10086A0004F03CEF04F00350015E0450025AD890A1
:10087A0004320332052E2DEF04F00650D8B448EFA7
:10088A0004F04AEF04F04EEF04F0016C021ED8B0F7
:10089A00022A01C001F002C002F01200010EA9EC06
:1008AA0004F00B6E0B28D8B45DEF04F05FEF04F090
:1008BA00A0EF04F0230E036E060E046EC10E056E41
:1008CA00E4EC04F0C50E096E0BC001F0026A000EDA
:1008DA00046E0A0E036E99EC03F00150300F5EECC1
:1008EA0005F0C60E096E0BC001F0026A000E046E16
:1008FA000A0E036EFBEC03F00150300F5EEC05F0BC
:10090A00190E036E060E046EC70E056EE4EC04F0B3
:10091A00C30E0D6E500E0C6E0C06D8A00D060C28D8
:10092A0006E10D28D8A49CEF04F09EEF04F091EFA5
:10093A0004F0A8EF04F0120E036E060E046EC00E49
:10094A00056EE4EC04F01200016E0104D8A4B0EFC5
:10095A0004F0B2EF04F0D6EF04F015EC03F00E6EDB
:10096A000E28D8B4BBEF04F0BDEF04F0CAEF04F0D0
:10097A000F50D8B4C3EF04F0C5EF04F0CAEF04F087
:10098A00000E0F6E0E50E3EF04F00E28D8A4D0EF3D
:10099A0004F0D2EF04F0E2EF04F0010E0F6EE2EF82
:1009AA0004F00150D8A4DCEF04F0DEEF04F0E2EF2B
:1009BA0004F015EC03F0E3EF04F0FF0E1200000E52
:1009CA00016E055006EC05F0F7EF04F0010E016E1A
:1009DA0003C0F6FF04C0F7FF0800F55006EC05F067
:1009EA00034A042A03C0F6FF04C0F7FF0800F550C3
:1009FA000009D8A403EF05F005EF05F0EBEF04F0CA
:100A0A001200026E01B00CEF05F00FEF05F08282C2
:100A1A0010EF05F0829202C083FF82848294958E41
:100A2A00828082928284829483BE1EEF05F020EF38
:100A3A0005F017EF05F08290959E1200000E956E54
:100A4A009450F80B946E8290000E016E020E06EC22
:100A5A0005F0000E016E380E06EC05F0000E016E70
:100A6A000C0E06EC05F0000E016E010E06EC05F008
:100A7A001200F60EF66E0A0EF76E000EF86E0900F8
:100A8A00F5CF0FF00E6A0D6A0C6A000EF86E060EAC
:100A9A00F76E000173EF05F06AEC05F023EC05F040
:100AAA00010E036E060E046E800E056EE4EC04F071
:100ABA0012000A6E000E016E095006EC05F0010ED6
:100ACA00016E0A5006EC05F012000F0EC16E1E0EE2
:100ADA00936EF19E8150E009816E120051EC05F08F
:0D0AEA0053EC04F075EF05F000EF00F00193
:020000040020DA
:08000000FFFFFFFFFFFFFFFF00
:020000040030CA
:0E000000FF071F1FFF8285FF0FC00FE00F409C
:00000001FF
