:0400000064EF03F0B6
:070600000061626364000069
:10060800000E956E9450F80B946E8290000E016E59
:10061800020E36EC03F0000E016E380E36EC03F0D5
:10062800000E016E0C0E36EC03F0000E016E010E8A
:1006380036EC03F01200000E016E045036EC03F0A5
:1006480009D0010E016E03C0F6FF0800F55036EC24
:1006580003F0032A03C0F6FF0800F5500009D8B4D8
:100668001200EFD7026E01A002D0828201D08292DE
:1006780002C083FF82848294958E828082928284D3
:10068800829483BEFCD78290959E12006BEC03F097
:10069800800E036E480E58EC03F0010E036EC40E74
:1006A800046E1FEC03F0F4D7046E000E016E0350C5
:1006B80036EC03F0010E016E045036EC03F0120024
:1006C800000EF86E060EF76E00014AEF03F004EC18
:0406D80003F0120019
:00000001FF
